:020000020000FC
:0200000009C035
:10001400002401E0102E0FE50DBF02E00EBFC09AD0
:10002400C19AB99A1CD000E00FBB00E00EBB01B727
:100034000DBB04E00CBB06E00CBB0000E199FECF55
:1000440018E002E026B320FFFDCF38B3302726B3F3
:1000540020FDFDCF38BB1A95A9F70000FFCF662716
:1000640081E0000050E4650F61BF0000000031D062
:10007400403069F15695552331F0052F413009F48C
:100084000195600FF1CF413011F051E001C05FEFF5
:10009400650F61BF000000001CD04030C1F0650F47
:1000A40061BF0000000015D0403089F05195550F14
:1000B400550F650F61BF000000000BD0403039F0D0
:1000C400882319F08A9560E8CDCFB99AC7CF462F17
:1000D4000895332402E0402E06E202BE11E0B09BF4
:1000E400FECFB099FECF13BF28B721FF02C0310C59
:1000F40048BEB09BFECF28B721FF02C0310C48BEDA
:10010400B099FECF28B721FF02C0310C48BEB09B86
:10011400FECF28B721FF02C0310C48BEB099FECFF4
:100124000A9581F728B721FF02C0310C48BEB09B65
:10013400FECF28B721FF02C0310C48BEB099FECFD4
:1001440003BE28B721FF04C00894301C227028BFC6
:1001540022B61FE726E2211632063CF411EC25E212
:100164001215230524F440E0089541E008954FEF6B
:020174000895EC
:00000001FF
